:100000000C9464000C948C000C948C000C94AB0D3C
:100010000C94AB0D0C94AB0D0C948C000C94870CD1
:100020000C948C000C948C000C948C000C94420F5B
:100030000C948C000C948C000C948C000C948C0010
:100040000C94610D0C948C000C942F0D0C94090DE4
:100050000C948C000C948C000C948C000C948C00F0
:100060000C94230E0C948C00000000002400270048
:100070002A0000000008000201000003040700003D
:1000800000000000000002000000002300260029FC
:100090000000000000250028002B000404040404D4
:1000A0000404040202020202020303030303030125
:1000B00002040810204080010204081020010204FC
:1000C0000810200043103F1611241FBECFEFD8E0C8
:1000D000DEBFCDBF13E0A0E0B1E0EAE0FEE202C087
:1000E00005900D92A234B107D9F726E0A2E4B3E05F
:1000F00001C01D92AE30B207E1F710E0C3E6D0E0D8
:1001000004C02197FE010E94DE16C236D107C9F74E
:100110000E94BF110C94F8160C940000DF92EF922D
:10012000FF920F931F93CF93DF93EC018091E9052A
:100130009091EA056981DC01ED91FC910190F081DB
:10014000E02D09958091E9059091EA05DC01ED919A
:10015000FC910190F081E02D688109958091E9057D
:100160009091EA05DC01ED91FC910190F081E02D88
:100170006A8109958091E9059091EA05DC01ED918C
:10018000FC910190F081E02D6B8109958091E9054A
:100190009091EA05DC01ED91FC910190F081E02D58
:1001A0006C8109958091E9059091EA05DC01ED915A
:1001B000FC910190F081E02D6D8109958091E90518
:1001C0009091EA05DC01ED91FC910190F081E02D28
:1001D0006E8109950F8118850E5F1F4F8091E9058B
:1001E0009091EA05E12EFF24DC01ED91FC91019054
:1001F000F081E02D6E2D09958091E9059091EA0539
:10020000DC01ED91FC910190F081E02D602F0995CA
:100210000E0D1F2D111D8E81080F111DD12C8091E7
:10022000E9059091EA05DC01ED91FC910190F081E6
:10023000E02DED2CF12C2F813885E216F30660F4C9
:10024000EC0EFD1ED70119966C910995F701818579
:10025000080F111DD394E3CF612F09958091E90513
:100260009091EA05DC01ED91FC910190F081E02D87
:10027000602FDF91CF911F910F91FF90EF90DF9052
:1002800009948F929F92AF92BF92FF920F931F9308
:10029000CF93DF93F09039052BE02F1508F44CC075
:1002A00020913B0508E512E0021B110927FD13957B
:1002B000000F111F000F111F20913A05C8E8D0E070
:1002C000C21BD10927FDD395CC0FDD1FCC0FDD1F3D
:1002D0004E010D2E000CAA08BB089801012E000C3F
:1002E000440B550B281939094A095B09DC010E94A6
:1002F000851624EB30E040E050E00E945B16820E51
:10030000931EA41EB51E8C169D062CF0E8018016C7
:1003100091060CF4E4012297CC0FDD1F2FB7F8945F
:100320008F2D90E0FC01EE0FFF1FE80FF91FEC5E30
:10033000FA4FD283C1832FBFDF91CF911F910F91CD
:10034000FF90BF90AF909F908F90089596E0899F07
:10035000D0011124A85BBA4F90967C936E935F975F
:1003600091E091969C939197E091B505F091B60537
:100370009091B405992339F0309751F0811108C05C
:10038000809164050994309719F05C968C91FACFAE
:100390000895CF92DF92EF92FF920F931F9396E012
:1003A000899FF0011124E85BFA4F11A2278D30A13B
:1003B0002130310551F178F02230310509F451C076
:1003C0002330310509F452C01F910F91FF90EF9037
:1003D000DF90CF9008956623B9F361E070E00E944A
:1003E000A6012FB7F8948091560490915704A091DC
:1003F0005804B09159042FBF8093A0059093A10594
:10040000A093A205B093A305DFCF9FB7F894C09047
:100410005604D0905704E0905804F09059049FBFC0
:100420000091A0051091A1052091A2053091A3058E
:10043000C01AD10AE20AF30A0091B2051091B3057D
:1004400030E020E00C151D052E053F0550F462E05C
:1004500070E01F910F91FF90EF90DF90CF900C9480
:10046000A6016111B1CF63E070E0F3CF70E060E00E
:10047000F0CF08950895AF92BF92CF92DF92EF929E
:10048000FF920F931F93CF93DF936C017B018B013E
:10049000040F151FEB015E01AE18BF08C017D1078E
:1004A00059F06991D601ED91FC910190F081E02D18
:1004B000C6010995892B79F7C501DF91CF911F916D
:1004C0000F91FF90EF90DF90CF90BF90AF90089585
:1004D000FC01538D448D252F30E0842F90E0821B4A
:1004E000930B541710F0CF96089501970895FC01CF
:1004F000918D828D981761F0A28DAE0FBF2FB11D27
:100500005D968C91928D9F5F9F73928F90E008957E
:100510008FEF9FEF0895FC01918D828D981731F038
:10052000828DE80FF11D858D90E008958FEF9FEF8C
:100530000895FC01918D228D892F90E0805C9F4F62
:10054000821B91098F73992708958BE694E00E948E
:10055000990221E0892B09F420E0822F089580E0A0
:1005600090E0892B29F00E94A50281110C940000D3
:100570000895FC01A48DA80FB92FB11DA35ABF4F38
:100580002C91848D90E001968F739927848FA68992
:10059000B7892C93A089B1898C91837080648C93E6
:1005A000938D848D981306C00288F389E02D808195
:1005B0008F7D80830895EF92FF920F931F93CF93C7
:1005C000DF93EC0181E0888F9B8D8C8D98131AC08E
:1005D000E889F989808185FF15C09FB7F894EE8975
:1005E000FF896083E889F9898081837080648083D2
:1005F0009FBF81E090E0DF91CF911F910F91FF901D
:10060000EF900895F62E0B8D10E00F5F1F4F0F73C4
:100610001127E02E8C8D8E110CC00FB607FCFACF7F
:10062000E889F989808185FFF5CFCE010E94B90262
:10063000F1CFEB8DEC0FFD2FF11DE35AFF4FF08250
:100640009FB7F8940B8FEA89FB8980818062CFCFB6
:10065000CF93DF93EC01888D8823B9F0AA89BB89F9
:10066000E889F9898C9185FD03C0808186FD0DC0E4
:100670000FB607FCF7CF8C9185FFF2CF808185FF05
:10068000EDCFCE010E94B902E9CFDF91CF9108955D
:10069000833081F028F4813099F08230A9F00895F8
:1006A0008730A9F08830C9F08430B1F4809180009F
:1006B0008F7D03C0809180008F77809380000895A4
:1006C00084B58F7784BD089584B58F7DFBCF8091ED
:1006D000B0008F778093B00008958091B0008F7D37
:1006E000F9CFCF93DF93282F30E0F901EE58FF4F79
:1006F0008491F901E155FF4FD491F901E556FF4F7F
:10070000C491CC23A1F081110E944803EC2FF0E0AA
:10071000EE0FFF1FE957FF4FA591B491EC91ED2328
:1007200081E090E009F480E0DF91CF91089580E0CE
:1007300090E0FACF862F0C9471031F93CF93DF9331
:10074000282F30E0F901EE58FF4F8491F901E1556F
:10075000FF4FD491F901E556FF4FC491CC23A9F086
:10076000162F81110E944803EC2FF0E0EE0FFF1FBF
:10077000EF56FF4FA591B4918FB7F894EC911111FA
:1007800008C0D095DE23DC938FBFDF91CF911F91FE
:100790000895DE2BF8CF862F642F0C949D03CF9302
:1007A000DF9390E0FC01E155FF4F249185569F4F68
:1007B000FC0184918823C9F090E0880F991FFC0107
:1007C000E859FF4FA591B491FC01EF56FF4FC59139
:1007D000D49161110DC09FB7F8948C91209582231C
:1007E0008C938881282328839FBFDF91CF91089520
:1007F000623051F49FB7F8943C91822F8095832307
:100800008C93E8812E2BEFCF8FB7F894EC912E2BA1
:100810002C938FBFEACF4F925F926F927F928F920D
:100820009F92AF92BF92CF92DF92EF92FF920F937F
:100830001F93CF938C014A015B01809108018430A2
:1008400099F08F3F09F46FC0CF911F910F91FF90E6
:10085000EF90DF90CF90BF90AF909F908F907F9060
:100860006F905F904F900895E6E8F0E0C491C7FD67
:10087000EBCF61E084E00E94CF032801712C612C52
:10088000CC23E9F0980150E040E0C23009F0BAC052
:1008900028013A0160E970ED83E090E00E945B1668
:1008A00069017A0181E0C81AD108E108F1088FEFE7
:1008B000C816D104E104F10409F00CF4DCC068E4CA
:1008C00078EE81E090E0A30192010E945B1669013D
:1008D0007A0181E0C81AD108E108F108CC2309F4B3
:1008E000CCC0C23009F01BC18FEFC816D104E1049F
:1008F000F10409F00CF41BC164E274EF80E090E0B5
:10090000A30192010E945B1669017A0181E0C81A75
:10091000D108E108F10885E09091B100987F892B1A
:100920008093B100C6C084E080930801E6E8F0E05F
:10093000C491CF3F09F488CFC13021F150F0C230CB
:1009400009F43EC0C7FD80CF61E084E00E94CF0380
:1009500099CF14BC15BC84B5826084BD85B5816017
:1009600085BDEFE9F0E0E491F0E0EE0FFF1FEF56F8
:10097000FF4F85919491E3EBF0E0E491E0935E0406
:10098000C0E077CF109280001092810080918100AA
:1009900088608093810080918100816080938100D4
:1009A000EFE9F0E0E491F0E0EE0FFF1FEF56FF4FAC
:1009B00085919491E3EBF0E0E491E0935D0459CFED
:1009C0001092B0001092B1008091B00082608093CC
:1009D000B0008091B10081608093B100EFE9F0E058
:1009E000E491F0E0EE0FFF1FEF56FF4F85919491D9
:1009F00090935C0480935B04E3EBF0E0E491E0937C
:100A00005A0437CF60E072E18AE790E00E945B16FB
:100A100069017A0181E0C81AD108E108F108C13002
:100A200009F047C080918100887F816080938100B8
:100A300040C0D0928900C092880020936304309314
:100A40006404409365045093660480916F00826053
:100A500080936F00F9CEC092B30020935F0430936F
:100A6000600440936104509362048091700082603E
:100A700080937000E9CE83E04FCF93E08FEFC816EC
:100A8000D104E104F10489F084F062E17AE780E0C6
:100A900090E0A30192010E945B1669017A0181E056
:100AA000C81AD108E108F10894E085B5887F892B40
:100AB00085BDD801AA0FBB1FA50194010E947A161B
:100AC00028EE33E040E050E00E948D16C13009F47A
:100AD000B0CFC23009F4BFCFC111B6CEC7BC20938E
:100AE0006704309368044093690450936A048091CA
:100AF0006E00826080936E00A7CE62E17AE780E0AC
:100B000090E0A30192010E945B1669017A0181E0E5
:100B1000C81AD108E108F108C1E086E0FDCE8FEFE8
:100B2000C816D104E104F10409F03CF7C1E084E007
:100B3000F3CE862F642F0C94CF032F923F924F92C7
:100B40005F926F927F928F929F92AF92BF92CF925D
:100B5000DF92EF92FF920F931F93CF93DF932224A4
:100B60002394812C912C5401839466246A94762CCE
:100B700056E0352E2092B4058FB7F8944091560474
:100B80005091570460915804709159048FBF80911F
:100B9000A4059091A505A091A605B091A705481BB5
:100BA000590B6A0B7B0B8091B0059091B105B0E0B9
:100BB000A0E084179507A607B707E0F6C0E080918C
:100BC000AE05C81760F4E091AA05F091AB05EC0FF3
:100BD000F11D62E080810E94CF03CF5FF0CF512CE6
:100BE0008091AF05581608F05FC0052D10E0E09128
:100BF000AC05F091AD05E00FF11F61E080810E942E
:100C0000CF03E091AC05F091AD05E00FF11F60E07E
:100C100080810E949D03D501C401052C04C0880F6A
:100C2000991FAA1FBB1F0A94D2F76C017C01E094A4
:100C3000F094412C8091AE054816F8F4C42DD0E014
:100C4000E091AA05F091AB05EC0FFD1F80810E9499
:100C500071032496CC0FDD1FC85BDA4F892B41F45A
:100C6000888199818C299D29998388834394E2CF37
:100C7000888199818E219F21F7CFE091AC05F09179
:100C8000AD05E00FF11F61E080810E949D0380911E
:100C9000AC059091AD05080F191F60E0F801808147
:100CA0000E94CF0353949CCFC8E4D5E0FE01878D0A
:100CB00090A1892B21F4148E768E658E11A2369622
:100CC00085E0E438F80799F710E08091AE05181731
:100CD00008F052C000E0E12EF12CEE0CFF1CF701F1
:100CE000E05BFA4F7F012091AF05021708F042C088
:100CF000F70160817181002E02C0769567950A9494
:100D0000E2F7129F90011124200F311DE8E4F5E075
:100D100080E0458D568D2417350709F470C08F5F2C
:100D200036968A30B1F760FF23C0E8E4F5E090E042
:100D300080E0448D411117C0E091A805F091A9050C
:100D4000E20FF31F6081389EF001399EF00D1124EF
:100D5000E85BFA4F648F368F258F10A2178E61E003
:100D60000E94C90105C0019636968A30910509F79F
:100D70000F5FB9CF1F5FA9CF80E099A19111892F93
:100D80002696F5E0C438DF07C1F79FB7F894409185
:100D900056045091570460915804709159049FBFB4
:100DA0004093A4055093A5056093A6057093A705ED
:100DB000882309F4DFCE80916905882309F4DACE0F
:100DC0008091670590916805019709F0D3CE8091D5
:100DD0006405882309F4CECEDF91CF911F910F9146
:100DE000FF90EF90DF90CF90BF90AF909F908F904B
:100DF0007F906F905F904F903F902F90089561701B
:100E0000AFCF3FB7F8948091360490913704A0910A
:100E10003804B091390426B5A89B05C02F3F19F0BE
:100E20000196A11DB11D3FBFBA2FA92F982F88276A
:100E3000BC01CD01620F711D811D911D42E0660F45
:100E4000771F881F991F4A95D1F708958F929F9217
:100E5000AF92BF92CF92DF92EF92FF924B015C0173
:100E60000E9401076B017C010E9401076C197D093A
:100E70008E099F09683E734081059105A8F321E022
:100E8000821A9108A108B10888EEC80E83E0D81E26
:100E9000E11CF11C81149104A104B10429F7FF9015
:100EA000EF90DF90CF90BF90AF909F908F9008957C
:100EB000EF92FF920F931F93CF93DF93EC01F12CEE
:100EC000E12C10E000E08091E9059091EA05DC0159
:100ED000ED91FC910084F185E02D0995892BB1F409
:100EE00061E070E080E090E00E942607BFEFEB1A1F
:100EF000FB0A88EEE81683E0F80628F38FEFDF910F
:100F0000CF911F910F91FF90EF9008958091E90587
:100F10009091EA05DC01ED91FC910284F385E02DCE
:100F200009950930110580F5F801E756F84F0C9442
:100F3000DE16A207AA07B407B407B407B407B907B7
:100F4000BB07BE078F3E09F0BECF188289830F5FB3
:100F50001F4FB9CF28813981282B3983288321302D
:100F60003F4EA9F38EEFCBCFFE01E00FF11F808340
:100F7000EECF8E83ECCF1F828887E9CF2F81388513
:100F8000282B38872F83E3CFFE01E00FF11F8083EA
:100F90002F813885C801089782179307C1F680E032
:100FA000AECF20913C0430913D042817390771F4ED
:100FB00090913A0480913B04981741F0E0913A04F3
:100FC000F0E0EB50FC4F808190E008958FEF9FEFB1
:100FD00008950895EF92FF920F931F93CF93DF939D
:100FE000DC015C96ED90FC905D97E114F10479F4DE
:100FF00081E090E013969C938E93129790E080E0AE
:10100000DF91CF911F910F91FF90EF90089551962E
:10101000ED91FC91529750968C915097982F909506
:101020000FB75E962C915E97122F127021FD60957E
:10103000F8942081112319F1282B2083E7012197AF
:10104000F1F728E0462F50E0308160FF1AC0382BBE
:101050003083E7012197F1F7BA0175956795215023
:1010600089F7112381F08081892380830FBF5C96EB
:101070008D919C910197F1F781E090E0C1CF2923F8
:10108000DCCF3923E5CF9081892BEFCF20913C0431
:1010900030913D042817390771F480913B04209169
:1010A0003A0490E0805C9F4F821B910960E470E0FD
:1010B0000E94CA16089590E080E0089520913C04B3
:1010C00030913D0428173907B9F490913A04809182
:1010D0003B04981789F0E0913A04F0E0EB50FC4FA4
:1010E000808120913A0430E02F5F3F4F2F733327E8
:1010F00020933A0490E008958FEF9FEF0895209198
:10110000AB03260F3327331F21323105ECF4209136
:10111000CF03FC0190E080E0243069F082E0089584
:10112000A091AB032191AC0145575C4FA40FB52FA3
:10113000B11D2C930196861798F38091AB03680F2D
:101140006093AB0380E0089581E008951092CF038F
:1011500081E08093D1031092D00361E082E10E948C
:101160009D0361E083E10E949D03E9EBF0E0808153
:101170008E7F808380818D7F808388E48093B80018
:1011800085E48093BC000895CF93DF9391E0909322
:101190008A038823B9F0C091B800D091BA00809139
:1011A000BC008A7B8093BC0060E082E10E949D03CA
:1011B00060E083E10E949D030E94A608D093BA00DC
:1011C000C093B800DF91CF910895E09145048091DC
:1011D0004404E81730F4F0E0EB59FC4F808190E0D4
:1011E00008958FEF9FEF08959091450480914404F6
:1011F0002FEF3FEF981748F4E92FF0E0EB59FC4F41
:10120000208130E09F5F90934504C901089580914B
:10121000440490914504891B990B0895CF92DF9265
:10122000EF92FF920F931F93CF93DF937C01CB013B
:101230008A0120916403222389F0EB016B01C40E23
:10124000D51ECC15DD0569F06991D701ED91FC91B2
:101250000190F081E02DC7010995F3CF642F0E9422
:101260007F08C801DF91CF911F910F91FF90EF9000
:10127000DF90CF900895CF93DF931F92CDB7DEB765
:101280006983209164032223F9F0209142042032E3
:1012900058F021E030E0FC013383228390E080E0CD
:1012A0000F90DF91CF91089580914304E82FF0E0F3
:1012B000EC5BFC4F998190838F5F80934304809314
:1012C000420481E090E0ECCF61E0CE0101960E9403
:1012D0007F08F7CFCF92DF92EF92FF920F931F9389
:1012E000CF93DF93FC01C48121E020936403C0937A
:1012F000430310924304109242048385682B88E0D4
:1013000095E00E943B09D0914204D13208F092C08E
:101310000E9401076B017C018091CF03811165C0A0
:1013200082E08093CF0381E08093D1038FEF80939D
:10133000CE031092F303D093F203A4E4B3E0E2ED02
:10134000F3E080E0D81385C01092F4038091F40399
:10135000CC0FC82BC093F4038091D003813009F0E7
:101360007CC01092D0030E9401076B017C01809128
:10137000F4038093BB008091860390918703A09132
:101380008803B0918903892B8A2B8B2B99F00E94BB
:101390000107009186031091870320918803309103
:1013A00089036C197D098E099F09061717072807FD
:1013B0003907E0F18091BC0083FDD9CF85EC8093A3
:1013C000BC000E9401076B017C018091CF03823039
:1013D00009F445C08091CE038F3F61F18091CE0327
:1013E000803241F18091CE0325C080918603909197
:1013F0008703A0918803B0918903892B8A2B8B2BBB
:1014000009F48ACF0E940107009186031091870397
:1014100020918803309189036C197D098E099F09F9
:10142000061717072807390708F076CF809185033C
:101430000E94C40810924304109242041092640364
:10144000DF91CF911F910F91FF90EF90DF90CF90A0
:1014500008959D9191938F5F75CF85EEB0CF809168
:10146000860390918703A0918803B0918903892B0B
:101470008A2B8B2B09F4A9CF0E94010700918603C8
:101480001091870320918803309189036C197D099D
:101490008E099F09061717072807390708F095CF07
:1014A000C5CF089590E080E008950F931F93CF93E8
:1014B0008C01C62F0E946A096C2F6460C8010E94CB
:1014C0006A096C2F6B7FC8010E946A0983EC90E067
:1014D0000197F1F7CF911F910F9108950F931F93EB
:1014E000CF93DF938C01D62FC42F607F642B0E9493
:1014F000550A80E1D89FB00111246C2BC801DF91FF
:10150000CF911F910F910C94550A40E061E08CE35C
:1015100095E00E946E0A8BE39FE10197F1F7089531
:10152000CF93DF93CDB7DEB728970FB6F894DEBF21
:101530000FBECDBF98E0ECE1F1E0DE011196019025
:101540000D929A95E1F790914405981708F48FEF62
:1015500090E0880F991F21E030E02C0F3D1F820F93
:10156000931FFC016081606840E08CE395E0289661
:101570000FB6F894DEBF0FBECDBFDF91CF910C94B4
:101580006E0A41E00E946E0A81E090E00895FB013E
:1015900001900020E9F73197AF01461B570BDC01A2
:1015A000ED91FC910280F381E02D09948F929F923E
:1015B000AF92BF92EF92FF920F931F93CF93DF935F
:1015C000CDB7DEB7A1970FB6F894DEBF0FBECDBF83
:1015D0007C01FA01CB0119A2223008F42AE08E0125
:1015E0000F5D1F4F822E912CB12CA12CBF01A501A4
:1015F00094010E948D16F901CA016A300CF5605DF4
:10160000D8016E938D01232B242B252B79F790E0A5
:1016100080E0109721F0BD01C7010E94C70AA19682
:101620000FB6F894DEBF0FBECDBFDF91CF911F91F3
:101630000F91FF90EF90BF90AF909F908F90089583
:10164000695CDECFCF93DF93BC018BE694E00E9410
:10165000C70AEC0168E771E08BE694E00E94C70AD4
:101660008C0F9D1FDF91CF9108950C94C70A0F93A3
:101670001F93CF93DF930E94850A6BE771E08CE3A1
:1016800095E00E94350B81E00E94900A6CE871E0C1
:101690008CE395E00E94350B06E414E0D0E0C0E056
:1016A0000E949D05F80181938F01209729F40E94E3
:1016B000850A80E00E94900A68E971E08CE395E079
:1016C0000E94350B2196C830D10551F7DF91CF919B
:1016D0001F910F910895CF93DF9380934E040E9442
:1016E000850A80E00E94900A68E971E08CE395E049
:1016F0000E94350BCFE4D4E00E949D05899368E9F0
:1017000071E08CE395E00E94350B84E0C235D80788
:1017100099F7DF91CF9108950E94850A80E00E9499
:10172000900A6AE971E08CE395E00E94350B84EB46
:1017300090E00E9441014EEE52E060E070E080E9EE
:1017400091E00E940B0468EB7BE080E090E00E9457
:1017500026070E94850A80E00E94900A60EA71E0F4
:101760008CE395E00E94350B90E080E00E944101FF
:101770004CEB52E060E070E08CE291E00E940B04E0
:1017800068EE73E080E090E00C9426070F931F93BF
:10179000CF93DF930E94370BE4E2F1E0A6E4B4E0DC
:1017A00091918D91981363C081E0EC32F807C1F7F5
:1017B0000E94850A68EB71E08CE395E00E94350B8E
:1017C00081E00E94900A62EE71E08CE395E00E9455
:1017D000350B0E949D05C82F809353040E94850AF3
:1017E00080E00E94900A8C2F0E946B0B00E011E0B9
:1017F000AEE4B4E0F80191918D919813CBCF81E0E4
:10180000E430F807C1F70E94850A6BED71E08CE3C4
:1018100095E00E94350BD0E0C0E00E949D05F801E4
:1018200081938F01209729F40E94850A80E00E940D
:10183000900A68E971E08CE395E00E94350B2196EF
:10184000C430D10551F70E94850A80E00E94900AB9
:1018500067EA71E08CE395E00E94350B1092550425
:1018600010925404DF91CF911F910F9108950E941F
:10187000850A62EC71E08CE395E00E94350B81E013
:101880000E94900A6EEC71E08CE395E00E94350BAB
:1018900068EB7BE080E090E00E9426077BCF85ED3F
:1018A0008093BC008091860390918703A091880368
:1018B000B09189030796A11DB11D23E0B695A795A8
:1018C000979587952A95D1F72091BC0024FD03C0F8
:1018D0001092CF0308954091860350918703609141
:1018E000880370918903452B462B472B69F300979A
:1018F000A105B10541F025E32A95F1F70000019714
:10190000A109B109E1CF809185030C94C4081F920D
:101910000F920FB60F9211242F933F934F935F9323
:101920006F937F938F939F93AF93BF93EF93FF93A7
:1019300080915F0490916004A0916104B091620471
:10194000892B8A2B8B2BD1F190915A04E0915B0467
:10195000F0915C0480818927808380915F0490915D
:101960006004A0916104B0916204181619061A0669
:101970001B069CF480915F0490916004A091610427
:10198000B09162040197A109B10980935F0490931B
:101990006004A0936104B0936204FF91EF91BF9142
:1019A000AF919F918F917F916F915F914F913F91F7
:1019B0002F910F900FBE0F901F90189580910801E6
:1019C000E6E8F0E0E4919FEF90930801E13051F0F8
:1019D00030F0E23069F060E00E949D03DECF1092AB
:1019E0006E00F9CF90916F009D7F90936F00F3CFC1
:1019F000909170009D7F9093700091E09093B00063
:101A00009091B100987F94609093B1001092B300D0
:101A1000E2CF1F920F920FB60F9211242F933F9394
:101A20004F935F936F937F938F939F93AF93BF93E6
:101A3000EF93FF938BE694E00E94B902FF91EF9140
:101A4000BF91AF919F918F917F916F915F914F91D6
:101A50003F912F910F900FBE0F901F9018951F92DE
:101A60000F920FB60F9211242F938F939F93EF93A2
:101A7000FF93E0917B04F0917C048081E0918104EC
:101A8000F091820482FD1BC09081809184048F5F5D
:101A90008F7320918504821741F0E0918404F0E077
:101AA000E559FB4F958F80938404FF91EF919F91AF
:101AB0008F912F910F900FBE0F901F9018958081DE
:101AC000F4CF1F920F920FB60F9211242F933F93D2
:101AD0008F939F93AF93BF93809156049091570437
:101AE000A0915804B09159043091350423E0230F9C
:101AF0002D3758F50196A11DB11D20933504809313
:101B0000560490935704A0935804B09359048091BD
:101B1000360490913704A0913804B09139040196AD
:101B2000A11DB11D8093360490933704A09338040F
:101B3000B0933904BF91AF919F918F913F912F91B5
:101B40000F900FBE0F901F90189526E8230F029656
:101B5000A11DB11DD2CF1F920F920FB60F9211246B
:101B60002F933F934F935F936F937F938F939F93A5
:101B7000AF93BF93EF93FF93E0913C04F0913D044A
:101B8000309749F0A685B7858585968D91FF14C05D
:101B90009C918923A1F4FF91EF91BF91AF919F9107
:101BA0008F917F916F915F914F913F912F910F9006
:101BB0000FBE0F901F9018959C91892361F7A38900
:101BC000B4899C918589809589238C93868997898E
:101BD0000197F1F7608D718DA685B785558538E041
:101BE00020E0CB010197F1F7822F90E09595879542
:101BF000282F4C91452309F02068315091F7868DAC
:101C000081FD209580913B0490E001968F73992788
:101C100030913A04381799F0A0913B04B0E0AB50F2
:101C2000BC4F2C9380933B04828D938D0197F1F7E9
:101C3000A389B4898C919589892B8C93ACCF868D9F
:101C40008160868FF1CF1F920F920FB60F921124F1
:101C50002F933F934F935F936F937F938F939F93B4
:101C6000AF93BF93EF93FF938091B900887F803645
:101C700009F44AC0F0F5883209F4A7C018F580319C
:101C800009F49BC0B8F4882309F4F9C0883009F43A
:101C900094C0FF91EF91BF91AF919F918F917F91F0
:101CA0006F915F914F913F912F910F900FBE0F90C9
:101CB0001F901895883109F488C0803251F78093BD
:101CC000CE0314C0803409F49DC040F48033B9F3CE
:101CD0008833F9F68093CE0385ECB0C0803509F4E3
:101CE00085C0883509F496C0883499F60E944F0C57
:101CF000D0CF883909F48CC038F5883729F050F4F2
:101D0000883611F0803729F683E08093CF03109254
:101D1000CD0357C0883809F47BC0803919F080386A
:101D200009F0B7CF8091CD03803208F071C0E09107
:101D3000CD0381E08E0F8093CD038091BB00F0E056
:101D4000E355FC4F80833DC0803B39F0E0F4803A9E
:101D500009F479C0883A09F09CCF84E08093CF03DE
:101D60001092AC031092AB03E0914004F091410457
:101D700009958091AB0381110FC081E08093AB0383
:101D800010928B0309C0803C09F4A6CF883C09F46B
:101D9000A3CF883B09F07DCFE091AC0381E08E0FAB
:101DA0008093AC03F0E0E557FC4F80818093BB004B
:101DB0009091AC038091AB0329C08091F403809390
:101DC000BB0085EC8093BC0064CF9091F3038091BD
:101DD000F203981758F5E091F30381E08E0F80939A
:101DE000F303F0E0EE52FC4F8081E9CFE091F30382
:101DF00081E08E0F8093F3038091BB00F0E0EE5200
:101E0000FC4F80839091F3038091F2039817C8F2FE
:101E100085E8D8CFE091F30381E08E0F8093F30340
:101E20008091BB00F0E0EE52FC4F80838091D103A3
:101E300081115CCF81E08093D00384EA8093BC0061
:101E40001092CF0326CF85EC8093BC001092CF0375
:101E50008091CD03803230F4E091CD03F0E0E35582
:101E6000FC4F10826091CD0370E0E0913E04F09150
:101E70003F048DEA93E009951092CD030ACF1092AA
:101E8000CE0334CF1F920F920FB60F9211242F93CF
:101E90003F934F935F936F937F938F939F93AF93F2
:101EA000BF93CF93DF93EF93FF9380914203C09151
:101EB0003805D0E087FF24C010928500109284007E
:101EC000809142038F5F8093420380914203082EEA
:101ED000000C990B8C179D0724F4809142038C30E1
:101EE000C4F18091840090918500049680349C49CF
:101EF00008F47AC08091840090918500049676C0A1
:101F000080914203082E000C990B8C179D07C4F694
:101F1000E09142038E2FEE0F990BFC01EE0FFF1F95
:101F2000E80FF91FEC5EFA4F808186FFC9CFE09180
:101F300042038E2FEE0F990BFC01EE0FFF1FE80FEF
:101F4000F91FEC5EFA4F808160E08F730E949D0361
:101F5000B7CF2091840030918500E09142038E2F0D
:101F6000EE0F990BFC01EE0FFF1FE80FF91FEC5E5F
:101F7000FA4F81819281820F931F90938900809301
:101F80008800E09142038E2FEE0F990BFC01EE0FBB
:101F9000FF1FE80FF91FEC5EFA4F808186FF11C02A
:101FA000E09142038E2FEE0F990BFC01EE0FFF1F05
:101FB000E80FF91FEC5EFA4F808161E08F730E9499
:101FC0009D03FF91EF91DF91CF91BF91AF919F91D1
:101FD0008F917F916F915F914F913F912F910F90D2
:101FE0000FBE0F901F90189580E49CE99093890094
:101FF000809388008FEF80934203E3CFCF92DF92EC
:10200000EF92FF920F931F93E82FF92F05C0015015
:1020100011092109310961F1908196239417B9F3CF
:1020200005C0015011092109310911F19081962350
:102030009413F7CFC12CD12CE12CF12C0AC08FEFD7
:10204000C81AD80AE80AF80A0C151D052E053F051E
:1020500079F080818623841791F36C2D7D2D8E2D50
:102060009F2D1F910F91FF90EF90DF90CF900895DB
:1020700060E070E080E090E01F910F91FF90EF90A2
:10208000DF90CF90089510926E0410926D0488EE48
:1020900093E0A0E0B0E080936F0490937004A0936D
:1020A0007104B093720420E331E030936C04209308
:1020B0006B0425EC30E0309378042093770424EC13
:1020C00030E030937A042093790420EC30E03093B0
:1020D0007C0420937B0421EC30E030937E04209339
:1020E0007D0422EC30E03093800420937F0426ECC2
:1020F00030E0309382042093810410928404109283
:102100008504109286041092870410920B05109299
:102110000A0580930C0590930D05A0930E05B093CE
:102120000F0522E431E03093090520930805109251
:10213000F2051092F1058093F3059093F405A093B6
:10214000F505B093F6058AE691E09093F00580934B
:10215000EF051092060610920506109208061092DE
:10216000070610920A061092090610920C061092A9
:102170000B0660910D066E7F6D7F60930D06669570
:10218000617081E0682788E00E949D0361E088E03B
:102190000E94CF03E7EBF0E0E491E093FF05E3EA70
:1021A000F0E0E491F0E0EE0FFF1FEF56FF4F859156
:1021B0009491909301068093000660E089E00E946C
:1021C000CF0380910D0681FD04C061E089E00E948B
:1021D0009D038FEE95E029E02093FB05E8EBF0E00E
:1021E000E491E093FC05E4EAF0E0E491F0E0EE0F26
:1021F000FF1FE957FF4F259134913093FE0520933F
:10220000FD051092BE051092BD051092C0051092FA
:10221000BF0520E430E03093C2052093C105109241
:10222000C4051092C3054FEF5FEFBA014093C50597
:102230005093C6056093C7057093C8053093CA05CF
:102240002093C90520E031EE3093CC052093CB05D7
:102250001092CD051092CE051092CF051092D005A8
:102260004093D1055093D2056093D3057093D40564
:102270001092EE051092ED059093EC058093EB051E
:102280009093EA058093E90510924A0510924E0555
:1022900010924D0510924F0580E691E0909349050C
:1022A00080934805E4E6F5E080EA95E01082148228
:1022B0001382158236968E179F07C1F78CE091E046
:1022C0009093AB058093AA0589E091E09093AD05CA
:1022D0008093AC0584E08093AE0593E09093AF05C6
:1022E00020E131E03093A9052093A8052AE030E0F1
:1022F0003093B1052093B00524EF31E03093B3055E
:102300002093B2051092B6051092B5051092A4055F
:102310001092A5051092A6051092A7051092B4057B
:1023200010923F0510923E0524E531E030933D05C3
:1023300020933C0590E29093400594E190934505ED
:102340008093460510924705809138058C3098F4AB
:1023500091E0980F909338058093390590E0FC0147
:10236000EE0FFF1FE80FF91FEC5EFA4F88EB9BE0C2
:102370009283818308958FEF809339050895CF93D9
:10238000DF93CDB7DEB7CF54D1090FB6F894DEBFD7
:102390000FBECDBF789484B5826084BD84B5816062
:1023A00084BD85B5826085BD85B5816085BD809120
:1023B0006E00816080936E00109281008091810098
:1023C0008260809381008091810081608093810090
:1023D000809180008160809380008091B100846052
:1023E0008093B1008091B00081608093B0008091B3
:1023F0007A00846080937A0080917A008260809372
:102400007A0080917A00816080937A0080917A00CE
:10241000806880937A001092C10068EE73E080E0DB
:1024200090E00E942607E091ED05F091EE053097CF
:1024300041F1A089B18982E08C93A089B1891C9275
:10244000A485B5851C92A685B78580E18C93108EF6
:10245000A489B58986E08C93A289B3898C91806127
:102460008C93A289B3898C9188608C93A289B3895B
:102470008C9180688C930288F389E02D80818F7D18
:102480008083E091EB05F091EC05309709F477C07B
:10249000138E128E118E108E178A168A82E490E0A7
:1024A000958F848F8485863108F03DC02FE030E021
:1024B000378B268B20E430E0318F208F27E230E00D
:1024C000338F228F90916800883008F470C121E02A
:1024D0008E3008F420E081E001C0880F2A95EAF7E9
:1024E000892B8093680094852DE630E0983050F079
:1024F0002BE630E09E3030F02CE630E0963110F0E4
:1025000030E020E0348B238B292F30E0983008F026
:1025100050C181E001C0880F9A95EAF7858B848DC0
:10252000958D0197F1F7828D938D892B41F1409123
:102530003C0450913D04E417F50709F1411551059C
:1025400069F0DA0153962D913C91D9019C91DA0101
:1025500055968C9180958923D9018C93868D8E7F99
:10256000868F10923B0410923A04F0933D04E0935E
:102570003C04A389B4898C919589892B8C9360E064
:102580008AE00E94CF0361E086E00E94CF03809141
:1025900039058C3008F051C061E085E00E94CF031E
:1025A00080913905282F30E0F901EE0FFF1FE20F6F
:1025B000F31FEC5EFA4F9081907C956090831092AF
:1025C0003A0510923B052CE0622F0E94BE16829FB6
:1025D000B001112430E020E0AB01420F531FFA019B
:1025E000EE0FFF1FE40FF51FEC5EFA4F908196FD92
:1025F00016C02F5F3F4F2C30310571F781110FC08E
:102600001092800082E080938100109285001092E9
:102610008400B19A80916F00826080936F00E09196
:1026200039058E2F90E0FC01EE0FFF1FE80FF91F18
:10263000EC5EFA4F80818064808390E080E00E94AD
:1026400041011092450410924404109243041092E8
:1026500042040E94A60889E392E09093410480938B
:1026600040048AE392E090933F0480933E041092EA
:10267000410580914605823018F098E0909341051D
:102680008093440562E370E080E090E00E942607BA
:10269000609147058CE395E00E946A0968EE73E05B
:1026A00080E090E00E94260760E38CE395E00E94C2
:1026B000550A0BE416E4C8010197F1F760E38CE3D7
:1026C00095E00E94550AC8010197F1F760E38CE399
:1026D00095E00E94550A83E592E00197F1F760E2E8
:1026E0008CE395E00E94550A60914105606240E0EC
:1026F0008CE395E00E946E0A84E08093420540E0FE
:102700006CE08CE395E00E946E0A0E94850A82E0EC
:102710008093430540E066E08CE395E00E946E0AFA
:1027200040E062E08CE395E00E946E0A8BE39FE15B
:102730000197F1F788E08093470560E08CE395E02E
:102740000E946A0980E00E94900A9091CD05209134
:10275000CE053091CF054091D00561E07FEE7A83C0
:10276000698381E08F8365E070E0798768878FEF08
:102770008B838C838D838E8383E18A874B873C8711
:102780002D879E87CE0101960E948E00CE01019674
:102790000E9458078823D1F08CEE91E00E94220B12
:1027A00061E070E080E090E00E942607F9CF84E0CD
:1027B00097CE9E3040F42850310981E001C0880F47
:1027C0002A95EAF7ABCE2E503109F7CF8F818730AB
:1027D00019F78A858111E0CF8FE092E00E94220BE9
:1027E000EE24E394EFEEFE2EF2E02F2E312CA6E045
:1027F0008A2E912C6FE0C62ED12C73E2A72EB12C1D
:1028000060E086E00E949D03C6010197F1F761E058
:1028100086E00E949D03C5010197F1F760E086E024
:102820000E949D03E9EBF0E06491E5EAF0E0849119
:10283000E82FF0E0EE0FFF1FE957FF4F85919491CD
:1028400000E412E42FE030E0462F0E94FE0F2B013F
:102850003C01411451046104710439F0FFEF4F1A37
:102860005F0A6F0A7F0A8FE078224092040150923B
:10287000050160920601709207016AEF70E080E046
:1028800090E00E94260794EF491691E059066104F2
:10289000710408F4B5CF84EF91E0A0E0B0E080933C
:1028A000040190930501A0930601B0930701DD2474
:1028B000DA9432E0A32E44E0B42E0CE211E08091D1
:1028C0005404909155040397D9F40E94850A69E253
:1028D00072E08CE395E00E94350B0E94C60B80915C
:1028E00052048111ECCF80E090E0892B09F482CF73
:1028F0000E94A502882309F47DCF0E9400007ACFB0
:102900000E94850A6AE372E08CE395E00E94350B31
:1029100081E00E94900A6DE072E08CE395E00E94F5
:10292000350B809154049091550423E0422E512C94
:10293000481A590A052C000C660877082AE0B301EA
:10294000A20177FE0EC041E06DE28CE395E00E94AB
:102950006E0A44275527BA014419550966097709B3
:102960002AE08CE395E00E94D60A69E472E08CE3E9
:1029700095E00E94350B0E949D05C82E809353045C
:102980000E94850A80E00E94900A93E2C9120DC05D
:102990000E94370BE4E2F1E0A6E4B4E091918D915E
:1029A000981332C10E171F07C9F7809153048A325A
:1029B00009F493CFFA82E982CC24C394CF82A1E0B8
:1029C000B0E0B987A887DB82DC82DD82DE82CA863E
:1029D000CE0101960E948E00CE0101960E945807FA
:1029E000811135C08F81873091F58A85813079F1E9
:1029F00048F0823009F4E5C0833009F4E5C08AEB81
:102A000092E089C086E592E00E94220BFA82E98278
:102A1000CF8239862886DB82DC82DD82DE82AA864E
:102A2000CB86CE0101960E948E00CE0101960E94B7
:102A3000580781110CC08F81873049F48A85863010
:102A400009F467C038F4882361F08130C1F682E868
:102A500092E061C0873011F0853189F686E992E015
:102A60005AC082E692E00E94220B2E961FAE1EAE46
:102A70002E979091C1052091C205FA82E98281E0EA
:102A80008F8399868886DB82DC82DD82DE822B96CC
:102A9000BFAE2B972C968FAF2C972F962FAF2F97DB
:102AA00060969FAF609786E0FE01E65BFF4FDE0118
:102AB0001A9601900D928A95E1F7CE0101960E9437
:102AC0008E00CE0101960E9458078111C0CF8F81E0
:102AD000873009F0BCCF8B859C859827892798275C
:102AE0009093B8058093B7058D859E859827892793
:102AF00098279093BA058093B9058A85882371F049
:102B0000813009F4A4CF893009F079CF8DEF92E0BC
:102B100002C082E792E00E94220B30C088EC92E073
:102B20000E94220B6DED72E08BE694E00E94350B63
:102B30004091B7055091B80570E060E02AE08BE65F
:102B400094E00E94D60A68EE72E08BE694E00E9460
:102B5000350B4091B9055091BA0570E060E02AE06C
:102B60008BE694E00E94D60A68E771E08BE694E079
:102B70000E94C70A8091B705882349F180915404C7
:102B800090915504019690935504809354040E94AB
:102B9000850A80E00E94900A63E373E08CE395E08D
:102BA0000E94350B48EE53E060E070E080ED97E066
:102BB0000E940B0468EE73E080E090E00E9426071C
:102BC0000CC082E193E0A7CF85E293E0A4CF0E94FE
:102BD0008C0B1092550410925404809153040E945F
:102BE0006B0BE0E0F1E0AEE4B4E091918D919813CD
:102BF00023C081E0E430F807C1F70E948C0B1092EB
:102C00005504109254046BCE0E94850A62EC71E068
:102C10008CE395E00E94350B81E00E94900A6EECF7
:102C200071E08CE395E00E94350B68EB7BE080E07F
:102C300090E00E942607B9CE8091540490915504EB
:102C4000019690935504809354040E94850A80E075
:102C50000E94900A63E373E08CE395E00E94350BD9
:102C600048EE53E060E070E080ED97E00E940B04D6
:102C700068EE73E080E090E00E94260730CE8AE69E
:102C800091E09093F0058093EF0580913C04909142
:102C90003D048F5E954071F4E0910206F0910306C9
:102CA00090818091040680958923808310923D0451
:102CB00010923C040895052E97FB1EF400940E9488
:102CC000721657FD07D00E948D1607FC03D04EF4F4
:102CD0000C94721650954095309521953F4F4F4F6B
:102CE0005F4F089590958095709561957F4F8F4FB8
:102CF0009F4F08950E94AF16A59F900DB49F900D11
:102D0000A49F800D911D11240895B7FF0C947A168D
:102D10000E947A16821B930B0895A1E21A2EAA1B19
:102D2000BB1BFD010DC0AA1FBB1FEE1FFF1FA2177B
:102D3000B307E407F50720F0A21BB30BE40BF50B78
:102D4000661F771F881F991F1A9469F76095709501
:102D5000809590959B01AC01BD01CF010895A29F84
:102D6000B001B39FC001A39F700D811D1124911D5F
:102D7000B29F700D811D1124911D0895991B79E05A
:102D800004C0991F961708F0961B881F7A95C9F7FB
:102D90008095089597FB072E16F4009407D077FDD1
:102DA00009D00E94E41607FC05D03EF49095819569
:102DB0009F4F0895709561957F4F0895EE0FFF1F07
:102DC0000590F491E02D0994AA1BBB1B51E107C0AB
:102DD000AA1FBB1FA617B70710F0A61BB70B881FAB
:102DE000991F5A95A9F780959095BC01CD0108953A
:102DF00010E0C3E6D0E004C0FE010E94DE1621967A
:0A2E0000C436D107C9F7F894FFCFDC
:102E0A0031313131F4010000FF0B0C0D03020100D6
:102E1A003132333435363738392A3023000040000E
:102E2A001400540031343636333234360000000090
:102E3A00DB023B0268022803990277028B02000038
:102E4A0000003B090E09520AE9070709F408E508D8
:102E5A0000000000C10A3B02520A510A00000000A9
:102E6A009905CB039A0300000000EA073B02520AC5
:102E7A00E90746085E08D1070D0A00456E746572B7
:102E8A002073757065722D75736572007061737346
:102E9A00776F7264212121002A004F70656E2E001F
:102EAA00436C6F73652E0050617373776F72642081
:102EBA006368616E67656400456E746572206F6C45
:102ECA00640057726F6E6720636F64652E005472D8
:102EDA007920616761696E212121004368616E670B
:102EEA00652070617373776F72643A004469642075
:102EFA006E6F742066696E642066696E67657270AB
:102F0A0072696E742073656E736F72203A28004678
:102F1A006F756E642066696E6765727072696E7429
:102F2A002073656E736F7221004368616E67652056
:102F3A0070617373776F72642100456E74657220D5
:102F4A0070617373776F726400207472696573209D
:102F5A006C6566742900496D6167652074616B65EB
:102F6A006E00496D61676520636F6E766572746580
:102F7A006400496D61676520746F6F206D657373B6
:102F8A007900436F6D6D756E69636174696F6E2048
:102F9A006572726F7200436F756C64206E6F742075
:102FAA0066696E642066696E6765727072696E74AE
:102FBA0020666561747572657300556E6B6E6F7706
:102FCA006E206572726F7200466F756E64206120A2
:102FDA007072696E74206D617463682100466F7542
:102FEA006E64204944202300207769746820636F47
:102FFA006E666964656E6365206F66200044696465
:10300A00206E6F742066696E642061206D6174633E
:10301A0068004E6F2066696E676572206465746524
:10302A006374656400496D6167696E6720657272D1
:10303A006F720057726F6E672070617373776F7269
:02304A00640020
:00000001FF
