:100000000C9464000C948C000C948C000C94180CD0
:100010000C94180C0C94180C0C948C000C94F40A8E
:100020000C948C000C948C000C948C000C94AF0DF0
:100030000C948C000C948C000C948C000C948C0010
:100040000C94CE0B0C948C000C949C0B0C94760BA3
:100050000C948C000C948C000C948C000C948C00F0
:100060000C94900C0C948C000000000024002700DD
:100070002A0000000008000201000003040700003D
:1000800000000000000002000000002300260029FC
:100090000000000000250028002B000404040404D4
:1000A0000404040202020202020303030303030125
:1000B00002040810204080010204081020010204FC
:1000C000081020006B0EBB1211241FBECFEFD8E02A
:1000D000DEBFCDBF12E0A0E0B1E0E2E0F7E202C097
:1000E00005900D92A432B107D9F724E0A4E2B2E062
:1000F00001C01D92A03FB207E1F710E0C3E6D0E0D7
:1001000004C02197FE010E946E13C236D107C9F7C1
:100110000E94E70F0C9474130C9400008F929F922E
:10012000AF92BF92FF920F931F93CF93DF93F09004
:100130001B042BE02F1508F44CC020911D0408E58A
:1001400012E0021B110927FD1395000F111F000F6C
:10015000111F20911C04C8E8D0E0C21BD10927FD63
:10016000D395CC0FDD1FCC0FDD1F4E010D2E000CE3
:10017000AA08BB089801012E000C440B550B281946
:1001800039094A095B09DC010E94011324EB30E0C4
:1001900040E050E00E94D712820E931EA41EB51EAE
:1001A0008C169D062CF0E801801691060CF4E401F3
:1001B0002297CC0FDD1F2FB7F8948F2D90E0FC0114
:1001C000EE0FFF1FE80FF91FEA50FC4FD283C183E7
:1001D0002FBFDF91CF911F910F91FF90BF90AF90F4
:1001E0009F908F90089596E0899FD0011124A65D7D
:1001F000BB4F90967C936E935F9791E091969C9302
:100200009197E0919704F091980490919604992326
:1002100039F0309751F0811108C08091460409945B
:10022000309719F05C968C91FACF0895CF92DF92B7
:10023000EF92FF920F931F9396E0899FF001112494
:10024000E65DFB4F11A2278D30A12130310551F120
:1002500078F02230310509F451C02330310509F41A
:1002600052C01F910F91FF90EF90DF90CF900895B3
:100270006623B9F361E070E00E94F3002FB7F894B1
:100280008091380390913903A0913A03B0913B03D8
:100290002FBF8093820490938304A0938404B0932F
:1002A0008504DFCF9FB7F894C0903803D09039030E
:1002B000E0903A03F0903B039FBF009182041091BD
:1002C00083042091840430918504C01AD10AE20A83
:1002D000F30A009194041091950430E020E00C158D
:1002E0001D052E053F0550F462E070E01F910F914F
:1002F000FF90EF90DF90CF900C94F3006111B1CF9D
:1003000063E070E0F3CF70E060E0F0CF089508950F
:10031000AF92BF92CF92DF92EF92FF920F931F9313
:10032000CF93DF936C017B018B01040F151FEB0151
:100330005E01AE18BF08C017D10759F06991D60108
:10034000ED91FC910190F081E02DC6010995892B7A
:1003500079F7C501DF91CF911F910F91FF90EF9039
:10036000DF90CF90BF90AF900895FC01538D448DE6
:10037000252F30E0842F90E0821B930B541710F050
:10038000CF96089501970895FC01918D828D98175D
:1003900061F0A28DAE0FBF2FB11D5D968C91928D35
:1003A0009F5F9F73928F90E008958FEF9FEF089566
:1003B000FC01918D828D981731F0828DE80FF11D2F
:1003C000858D90E008958FEF9FEF0895FC01918D4A
:1003D000228D892F90E0805C9F4F821B91098F7343
:1003E000992708958DE493E00E94E60121E0892B8E
:1003F00009F420E0822F089580E090E0892B29F015
:100400000E94F20181110C9400000895FC01A48D5A
:10041000A80FB92FB11DA35ABF4F2C91848D90E026
:1004200001968F739927848FA689B7892C93A08909
:10043000B1898C91837080648C93938D848D981393
:1004400006C00288F389E02D80818F7D8083089526
:10045000EF92FF920F931F93CF93DF93EC0181E014
:10046000888F9B8D8C8D98131AC0E889F9898081BB
:1004700085FF15C09FB7F894EE89FF896083E889EE
:10048000F98980818370806480839FBF81E090E0E0
:10049000DF91CF911F910F91FF90EF900895F62E6D
:1004A0000B8D10E00F5F1F4F0F731127E02E8C8D07
:1004B0008E110CC00FB607FCFACFE889F98980814C
:1004C00085FFF5CFCE010E940602F1CFEB8DEC0F38
:1004D000FD2FF11DE35AFF4FF0829FB7F8940B8F69
:1004E000EA89FB8980818062CFCFCF93DF93EC01D3
:1004F000888D8823B9F0AA89BB89E889F9898C910C
:1005000085FD03C0808186FD0DC00FB607FCF7CFC7
:100510008C9185FFF2CF808185FFEDCFCE010E94C7
:100520000602E9CFDF91CF910895833081F028F45E
:10053000813099F08230A9F008958730A9F0883091
:10054000C9F08430B1F4809180008F7D03C0809128
:1005500080008F7780938000089584B58F7784BD65
:10056000089584B58F7DFBCF8091B0008F77809305
:10057000B00008958091B0008F7DF9CFCF93DF93C5
:10058000282F30E0F901EE58FF4F8491F901E15531
:10059000FF4FD491F901E556FF4FC491CC23A1F050
:1005A00081110E949502EC2FF0E0EE0FFF1FE9573A
:1005B000FF4FA591B491EC91ED2381E090E009F417
:1005C00080E0DF91CF91089580E090E0FACF862F10
:1005D0000C94BE021F93CF93DF93282F30E0F901D4
:1005E000EE58FF4F8491F901E155FF4FD491F90185
:1005F000E556FF4FC491CC23A9F0162F81110E941C
:100600009502EC2FF0E0EE0FFF1FEF56FF4FA59184
:10061000B4918FB7F894EC91111108C0D095DE23F6
:10062000DC938FBFDF91CF911F910895DE2BF8CF20
:10063000862F642F0C94EA02CF93DF9390E0FC01A5
:10064000E155FF4F249185569F4FFC0184918823EB
:10065000C9F090E0880F991FFC01E859FF4FA59160
:10066000B491FC01EF56FF4FC591D49161110DC0BB
:100670009FB7F8948C91209582238C9388812823AE
:1006800028839FBFDF91CF910895623051F49FB7C7
:10069000F8943C91822F809583238C93E8812E2BB4
:1006A000EFCF8FB7F894EC912E2B2C938FBFEACF1E
:1006B0004F925F926F927F928F929F92AF92BF9272
:1006C000CF92DF92EF92FF920F931F93CF938C0103
:1006D0004A015B0180910401843099F08F3F09F455
:1006E0006FC0CF911F910F91FF90EF90DF90CF904F
:1006F000BF90AF909F908F907F906F905F904F9042
:100700000895E6E8F0E0C491C7FDEBCF61E084E036
:100710000E941C032801712C612CCC23E9F0980164
:1007200050E040E0C23009F0BAC028013A0160E967
:1007300070ED83E090E00E94D71269017A0181E0B8
:10074000C81AD108E108F1088FEFC816D104E104F6
:10075000F10409F00CF4DCC068E478EE81E090E08C
:10076000A30192010E94D71269017A0181E0C81A9F
:10077000D108E108F108CC2309F4CCC0C23009F05B
:100780001BC18FEFC816D104E104F10409F00CF489
:100790001BC164E274EF80E090E0A30192010E942B
:1007A000D71269017A0181E0C81AD108E108F1087D
:1007B00085E09091B100987F892B8093B100C6C0ED
:1007C00084E080930401E6E8F0E0C491CF3F09F4AF
:1007D00088CFC13021F150F0C23009F43EC0C7FDCE
:1007E00080CF61E084E00E941C0399CF14BC15BC4B
:1007F00084B5826084BD85B5816085BDEFE9F0E098
:10080000E491F0E0EE0FFF1FEF56FF4F85919491BA
:10081000E3EBF0E0E491E0934003C0E077CF109287
:100820008000109281008091810088608093810017
:1008300080918100816080938100EFE9F0E0E49194
:10084000F0E0EE0FFF1FEF56FF4F85919491E3EB21
:10085000F0E0E491E0933F0359CF1092B000109282
:10086000B1008091B00082608093B0008091B100AF
:1008700081608093B100EFE9F0E0E491F0E0EE0FE9
:10088000FF1FEF56FF4F8591949190933E03809305
:100890003D03E3EBF0E0E491E0933C0337CF60E00D
:1008A00072E18AE790E00E94D71269017A0181E043
:1008B000C81AD108E108F108C13009F047C0809199
:1008C0008100887F81608093810040C0D092890040
:1008D000C09288002093450330934603409347031A
:1008E0005093480380916F00826080936F00F9CE2F
:1008F000C092B300209341033093420340934303DB
:100900005093440380917000826080937000E9CE20
:1009100083E04FCF93E08FEFC816D104E104F104D8
:1009200089F084F062E17AE780E090E0A30192012F
:100930000E94D71269017A0181E0C81AD108E10842
:10094000F10894E085B5887F892B85BDD801AA0F71
:10095000BB1FA50194010E94F61228EE33E040E08F
:1009600050E00E940913C13009F4B0CFC23009F43D
:10097000BFCFC111B6CEC7BC2093490330934A0301
:1009800040934B0350934C0380916E0082608093A0
:100990006E00A7CE62E17AE780E090E0A3019201C9
:1009A0000E94D71269017A0181E0C81AD108E108D2
:1009B000F108C1E086E0FDCE8FEFC816D104E10456
:1009C000F10409F03CF7C1E084E0F3CE862F642FF8
:1009D0000C941C032F923F924F925F926F927F92E2
:1009E0008F929F92AF92BF92CF92DF92EF92FF923F
:1009F0000F931F93CF93DF9322242394812C912C68
:100A00005401839466246A94762C56E0352E209205
:100A100096048FB7F8944091380350913903609150
:100A20003A0370913B038FBF8091860490918704B5
:100A3000A0918804B0918904481B590B6A0B7B0B69
:100A40008091920490919304B0E0A0E08417950700
:100A5000A607B707E0F6C0E080919004C81760F4DD
:100A6000E0918C04F0918D04EC0FF11D62E0808127
:100A70000E941C03CF5FF0CF512C80919104581637
:100A800008F05FC0052D10E0E0918E04F0918F0416
:100A9000E00FF11F61E080810E941C03E0918E0451
:100AA000F0918F04E00FF11F60E080810E94EA0264
:100AB000D501C401052C04C0880F991FAA1FBB1FB4
:100AC0000A94D2F76C017C01E094F094412C80915F
:100AD00090044816F8F4C42DD0E0E0918C04F09115
:100AE0008D04EC0FFD1F80810E94BE022496CC0F66
:100AF000DD1FC65DDB4F892B41F4888199818C29EC
:100B00009D29998388834394E2CF888199818E219E
:100B10009F21F7CFE0918E04F0918F04E00FF11F39
:100B200061E080810E94EA0280918E0490918F049E
:100B3000080F191F60E0F80180810E941C03539484
:100B40009CCFCAE2D4E0FE01878D90A1892B21F4CD
:100B5000148E768E658E11A2369684E0E636F807FE
:100B600099F710E080919004181708F052C000E047
:100B7000E12EF12CEE0CFF1CF701EE5CFB4F7F0128
:100B800020919104021708F042C0F7016081718141
:100B9000002E02C0769567950A94E2F7129F9001A5
:100BA0001124200F311DEAE2F4E080E0458D568DDE
:100BB0002417350709F470C08F5F36968A30B1F775
:100BC00060FF23C0EAE2F4E090E080E0448D411150
:100BD00017C0E0918A04F0918B04E20FF31F60814B
:100BE000389EF001399EF00D1124E65DFB4F648FB5
:100BF000368F258F10A2178E61E00E94160105C066
:100C0000019636968A30910509F70F5FB9CF1F5FBD
:100C1000A9CF80E099A19111892F2696F4E0C636DC
:100C2000DF07C1F79FB7F89440913803509139031B
:100C300060913A0370913B039FBF409386045093A9
:100C400087046093880470938904882309F4DFCEB5
:100C500080914B04882309F4DACE80914904909165
:100C60004A04019709F0D3CE80914604882309F401
:100C7000CECEDF91CF911F910F91FF90EF90DF903B
:100C8000CF90BF90AF909F908F907F906F905F902C
:100C90004F903F902F9008956170AFCF3FB7F89479
:100CA0008091180390911903A0911A03B0911B032E
:100CB00026B5A89B05C02F3F19F00196A11DB11DB7
:100CC0003FBFBA2FA92F982F8827BC01CD01620FF3
:100CD000711D811D911D42E0660F771F881F991FAE
:100CE0004A95D1F708958F929F92AF92BF92CF927B
:100CF000DF92EF92FF924B015C010E944E066B0166
:100D00007C010E944E066C197D098E099F09683E80
:100D1000734081059105A8F321E0821A9108A1088A
:100D2000B10888EEC80E83E0D81EE11CF11C8114C6
:100D30009104A104B10429F7FF90EF90DF90CF90C8
:100D4000BF90AF909F908F90089520911E03309197
:100D50001F032817390771F490911C0380911D031C
:100D6000981741F0E0911C03F0E0E952FD4F8081BB
:100D700090E008958FEF9FEF08950895EF92FF920E
:100D80000F931F93CF93DF93DC015C96ED90FC9063
:100D90005D97E114F10479F481E090E013969C935F
:100DA0008E93129790E080E0DF91CF911F910F9189
:100DB000FF90EF9008955196ED91FC9152975096C7
:100DC0008C915097982F90950FB75E962C915E97C7
:100DD000122F127021FD6095F8942081112319F1D2
:100DE000282B2083E7012197F1F728E0462F50E0D8
:100DF000308160FF1AC0382B3083E7012197F1F76B
:100E0000BA0175956795215089F7112381F080818A
:100E1000892380830FBF5C968D919C910197F1F798
:100E200081E090E0C1CF2923DCCF3923E5CF908149
:100E3000892BEFCF20911E0330911F03281739070C
:100E400071F480911D0320911C0390E0805C9F4F02
:100E5000821B910960E470E00E944613089590E0BF
:100E600080E0089520911E0330911F032817390751
:100E7000B9F490911C0380911D03981789F0E091BB
:100E80001C03F0E0E952FD4F808120911C0330E00B
:100E90002F5F3F4F2F73332720931C0390E008955B
:100EA0008FEF9FEF089520918D02260F3327331F78
:100EB00021323105ECF42091B102FC0190E080E098
:100EC000243069F082E00895A0918D022191AC0157
:100ED00043595D4FA40FB52FB11D2C930196861772
:100EE00098F380918D02680F60938D0280E00895E1
:100EF00081E008951092B10281E08093B3021092D4
:100F0000B20261E082E10E94EA0261E083E10E94B4
:100F1000EA02E9EBF0E080818E7F808380818D7F23
:100F2000808388E48093B80085E48093BC000895B2
:100F3000CF93DF9391E090936C028823B9F0C09136
:100F4000B800D091BA008091BC008A7B8093BC002D
:100F500060E082E10E94EA0260E083E10E94EA022E
:100F60000E947A07D093BA00C093B800DF91CF9166
:100F70000895E091270380912603E81730F4F0E00C
:100F8000E95BFD4F808190E008958FEF9FEF08951A
:100F900090912703809126032FEF3FEF981748F495
:100FA000E92FF0E0E95BFD4F208130E09F5F9093F7
:100FB0002703C90108958091260390912703891B77
:100FC000990B0895CF92DF92EF92FF920F931F93A8
:100FD000CF93DF937C01CB018A012091460222232B
:100FE00089F0EB016B01C40ED51ECC15DD0569F04F
:100FF0006991D701ED91FC910190F081E02DC7013D
:101000000995F3CF642F0E945307C801DF91CF9158
:101010001F910F91FF90EF90DF90CF900895CF93A5
:10102000DF931F92CDB7DEB769832091460222235A
:10103000F9F020912403203258F021E030E0FC0147
:101040003383228390E080E00F90DF91CF91089569
:1010500080912503E82FF0E0EA5DFD4F99819083B0
:101060008F5F809325038093240381E090E0ECCF91
:1010700061E0CE0101960E945307F7CFCF92DF9235
:10108000EF92FF920F931F93CF93DF93FC01C481E4
:1010900021E020934602C09325021092250310926E
:1010A00024038385682B8AEE93E00E940F08D09179
:1010B0002403D13208F092C00E944E066B017C01DD
:1010C0008091B102811165C082E08093B10281E01C
:1010D0008093B3028FEF8093B0021092D502D09329
:1010E000D402A6E2B2E0E4EBF2E080E0D81385C0DF
:1010F0001092D6028091D602CC0FC82BC093D60294
:101100008091B202813009F07CC01092B2020E943C
:101110004E066B017C018091D6028093BB008091CA
:10112000680290916902A0916A02B0916B02892BCA
:101130008A2B8B2B99F00E944E0600916802109129
:10114000690220916A0230916B026C197D098E0947
:101150009F090617170728073907E0F18091BC009F
:1011600083FDD9CF85EC8093BC000E944E066B01B5
:101170007C018091B102823009F445C08091B002B7
:101180008F3F61F18091B002803241F18091B002D5
:1011900025C08091680290916902A0916A02B09185
:1011A0006B02892B8A2B8B2B09F48ACF0E944E0667
:1011B000009168021091690220916A0230916B02DD
:1011C0006C197D098E099F0906171707280739072B
:1011D00008F076CF809167020E949807109225034D
:1011E0001092240310924602DF91CF911F910F912C
:1011F000FF90EF90DF90CF9008959D9191938F5F36
:1012000075CF85EEB0CF8091680290916902A09170
:101210006A02B0916B02892B8A2B8B2B09F4A9CF20
:101220000E944E06009168021091690220916A02A4
:1012300030916B026C197D098E099F0906171707FB
:101240002807390708F095CFC5CF089590E080E0D2
:1012500008950F931F93CF938C01C62F0E943E08D1
:101260006C2F6460C8010E943E086C2F6B7FC80120
:101270000E943E0883EC90E00197F1F7CF911F9117
:101280000F9108950F931F93CF93DF938C01D62F67
:10129000C42F607F642B0E94290980E1D89FB00190
:1012A00011246C2BC801DF91CF911F910F910C94E9
:1012B000290940E061E08EE194E00E9442098BE35D
:1012C0009FE10197F1F70895CF93DF93CDB7DEB794
:1012D00028970FB6F894DEBF0FBECDBF98E0E8E1C7
:1012E000F1E0DE01119601900D929A95E1F790914F
:1012F0002604981708F48FEF90E0880F991F21E0DB
:1013000030E02C0F3D1F820F931FFC01608160684D
:1013100040E08EE194E028960FB6F894DEBF0FBE51
:10132000CDBFDF91CF910C94420941E00E94420968
:1013300081E090E008958F929F92AF92BF920F93B9
:101340001F93CF93DF93CDB7DEB7A1970FB6F89475
:10135000DEBF0FBECDBF19A2423008F44AE08E01B5
:101360000F5D1F4F842E912CB12CA12CA50194014F
:101370000E940913E62FB901CA01EA3044F5E05D85
:10138000D801EE938D01232B242B252B79F790E0A8
:1013900080E0109769F0FD0101900020E9F7319796
:1013A000AF014A1B5B0BBD018EE194E00E948801F6
:1013B000A1960FB6F894DEBF0FBECDBFDF91CF91DF
:1013C0001F910F91BF90AF909F908F900895E95C0F
:1013D000D7CFFC0101900020E9F73197AF01481BFE
:1013E000590BBC018EE194E00C9488010F931F937C
:1013F000CF93DF930E94590984E791E00E94E909A5
:1014000081E00E94640985E891E00E94E90908E210
:1014100013E0D0E0C0E00E94EA04F80181938F015C
:10142000209729F40E94590980E00E94640981E90B
:1014300091E00E94E9092196C830D10561F7DF915A
:10144000CF911F910F910895CF93DF938093300335
:101450000E94590980E00E94640981E991E00E949C
:10146000E909C1E3D3E00E94EA04899381E991E0AC
:101470000E94E90983E0C433D807A9F7DF91CF912F
:1014800008950F931F93CF93DF930E94F609E0E234
:10149000F1E0A8E2B3E091918D91981359C081E0F9
:1014A000E832F807C1F70E94590984EA91E00E94E6
:1014B000E90981E00E9464098EEC91E00E94E9094B
:1014C0000E94EA04C82F809335030E94590980E0E6
:1014D0000E9464098C2F0E94240A00E011E0A0E31E
:1014E000B3E0F80191918D919813CFCF81E0E43072
:1014F000F807C1F70E94590987EC91E00E94E909B9
:10150000D0E0C0E00E94EA04F80181938F012097A7
:1015100029F40E94590980E00E94640981E991E060
:101520000E94E9092196C430D10561F70E9459094A
:1015300080E00E94640983E991E00E94E909109229
:10154000370310923603DF91CF911F910F910895C9
:101550000E9459098EEA91E00E94E90981E00E9407
:1015600064098AEB91E00E94E90968EB7BE080E086
:1015700090E00E94730689CF85ED8093BC00809136
:10158000680290916902A0916A02B0916B0207967D
:10159000A11DB11D23E0B695A795979587952A952E
:1015A000D1F72091BC0024FD03C01092B102089530
:1015B000409168025091690260916A0270916B02D9
:1015C000452B462B472B69F30097A105B10541F048
:1015D00025E32A95F1F700000197A109B109E1CFB0
:1015E000809167020C9498071F920F920FB60F928A
:1015F00011242F933F934F935F936F937F938F9318
:101600009F93AF93BF93EF93FF938091410390918A
:101610004203A0914303B0914403892B8A2B8B2B67
:10162000D1F190913C03E0913D03F0913E03808124
:10163000892780838091410390914203A0914303C5
:10164000B0914403181619061A061B069CF48091E3
:10165000410390914203A0914303B0914403019749
:10166000A109B1098093410390934203A0934303DE
:10167000B0934403FF91EF91BF91AF919F918F91F0
:101680007F916F915F914F913F912F910F900FBE7E
:101690000F901F90189580910401E6E8F0E0E49126
:1016A0009FEF90930401E13051F030F0E23069F0A7
:1016B00060E00E94EA02DECF10926E00F9CF9091B6
:1016C0006F009D7F90936F00F3CF909170009D7F8E
:1016D0009093700091E09093B0009091B100987F4A
:1016E00094609093B1001092B300E2CF1F920F92DA
:1016F0000FB60F9211242F933F934F935F936F93E5
:101700007F938F939F93AF93BF93EF93FF938DE45A
:1017100093E00E940602FF91EF91BF91AF919F91DC
:101720008F917F916F915F914F913F912F910F908A
:101730000FBE0F901F9018951F920F920FB60F9229
:1017400011242F938F939F93EF93FF93E0915D0369
:10175000F0915E038081E0916303F091640382FD68
:101760001BC09081809166038F5F8F732091670308
:10177000821741F0E0916603F0E0E35BFC4F958F48
:1017800080936603FF91EF919F918F912F910F901E
:101790000FBE0F901F9018958081F4CF1F920F926B
:1017A0000FB60F9211242F933F938F939F93AF9374
:1017B000BF938091380390913903A0913A03B0917F
:1017C0003B033091170323E0230F2D3758F5019683
:1017D000A11DB11D20931703809338039093390303
:1017E000A0933A03B0933B0380911803909119039F
:1017F000A0911A03B0911B030196A11DB11D809306
:10180000180390931903A0931A03B0931B03BF917D
:10181000AF919F918F913F912F910F900FBE0F909D
:101820001F90189526E8230F0296A11DB11DD2CF57
:101830001F920F920FB60F9211242F933F934F9345
:101840005F936F937F938F939F93AF93BF93EF9328
:10185000FF93E0911E03F0911F03309749F0A68596
:10186000B7858585968D91FF14C09C918923A1F43D
:10187000FF91EF91BF91AF919F918F917F916F9168
:101880005F914F913F912F910F900FBE0F901F903E
:1018900018959C91892361F7A389B4899C918589C6
:1018A000809589238C93868997890197F1F7608DBC
:1018B000718DA685B785558538E020E0CB0101976D
:1018C000F1F7822F90E095958795282F4C9145232D
:1018D00009F02068315091F7868D81FD2095809127
:1018E0001D0390E001968F73992730911C033817E0
:1018F00099F0A0911D03B0E0A952BD4F2C938093A5
:101900001D03828D938D0197F1F7A389B4898C9182
:101910009589892B8C93ACCF868D8160868FF1CF92
:101920001F920F920FB60F9211242F933F934F9354
:101930005F936F937F938F939F93AF93BF93EF9337
:10194000FF938091B900887F803609F44AC0F0F592
:10195000883209F4A7C018F5803109F49BC0B8F4A7
:10196000882309F4F9C0883009F494C0FF91EF91FD
:10197000BF91AF919F918F917F916F915F914F91A7
:101980003F912F910F900FBE0F901F9018958831A7
:1019900009F488C0803251F78093B00214C08034BB
:1019A00009F49DC040F48033B9F38833F9F680938D
:1019B000B00285ECB0C0803509F485C0883509F4E3
:1019C00096C0883499F60E94BC0AD0CF883909F4B1
:1019D0008CC038F5883729F050F4883611F08037FC
:1019E00029F683E08093B1021092AF0257C0883885
:1019F00009F47BC0803919F0803809F0B7CF8091A5
:101A0000AF02803208F071C0E091AF0281E08E0F2A
:101A10008093AF028091BB00F0E0E157FD4F8083DF
:101A20003DC0803B39F0E0F4803A09F479C0883A4F
:101A300009F09CCF84E08093B10210928E02109244
:101A40008D02E0912203F0912303099580918D028C
:101A500081110FC081E080938D0210926D0209C048
:101A6000803C09F4A6CF883C09F4A3CF883B09F059
:101A70007DCFE0918E0281E08E0F80938E02F0E0A8
:101A8000E359FD4F80818093BB0090918E0280913D
:101A90008D0229C08091D6028093BB0085EC809393
:101AA000BC0064CF9091D5028091D402981758F56C
:101AB000E091D50281E08E0F8093D502F0E0EC54E6
:101AC000FD4F8081E9CFE091D50281E08E0F8093B8
:101AD000D5028091BB00F0E0EC54FD4F80839091E3
:101AE000D5028091D4029817C8F285E8D8CFE0914A
:101AF000D50281E08E0F8093D5028091BB00F0E08B
:101B0000EC54FD4F80838091B30281115CCF81E062
:101B10008093B20284EA8093BC001092B10226CF77
:101B200085EC8093BC001092B1028091AF028032AC
:101B300030F4E091AF02F0E0E157FD4F1082609188
:101B4000AF0270E0E0912003F09121038FE892E072
:101B500009951092AF020ACF1092B00234CF1F92B3
:101B60000F920FB60F9211242F933F934F935F93D1
:101B70006F937F938F939F93AF93BF93CF93DF9395
:101B8000EF93FF9380912402C0911A04D0E087FF65
:101B900024C01092850010928400809124028F5FEF
:101BA0008093240280912402082E000C990B8C173C
:101BB0009D0724F4809124028C30C4F1809184002C
:101BC00090918500049680349C4908F47AC08091F5
:101BD000840090918500049676C080912402082E9E
:101BE000000C990B8C179D07C4F6E09124028E2FF0
:101BF000EE0F990BFC01EE0FFF1FE80FF91FEA50E3
:101C0000FC4F808186FFC9CFE09124028E2FEE0F1A
:101C1000990BFC01EE0FFF1FE80FF91FEA50FC4F74
:101C2000808160E08F730E94EA02B7CF2091840028
:101C300030918500E09124028E2FEE0F990BFC016C
:101C4000EE0FFF1FE80FF91FEA50FC4F81819281D0
:101C5000820F931F9093890080938800E091240263
:101C60008E2FEE0F990BFC01EE0FFF1FE80FF91FEF
:101C7000EA50FC4F808186FF11C0E09124028E2F34
:101C8000EE0F990BFC01EE0FFF1FE80FF91FEA5052
:101C9000FC4F808161E08F730E94EA02FF91EF9117
:101CA000DF91CF91BF91AF919F918F917F916F9174
:101CB0005F914F913F912F910F900FBE0F901F900A
:101CC000189580E49CE990938900809388008FEFB9
:101CD00080932402E3CF1092500310924F0388EEBA
:101CE00093E0A0E0B0E08093510390935203A0935F
:101CF0005303B09354032CE231E030934E0320930E
:101D00004D0325EC30E030935A032093590324EC23
:101D100030E030935C0320935B0320EC30E03093A1
:101D20005E0320935D0321EC30E030936003209349
:101D30005F0322EC30E0309362032093610326ECD2
:101D400030E0309364032093630310926603109293
:101D5000670310926803109269031092ED031092CA
:101D6000EC038093EE039093EF03A093F003B09302
:101D7000F1032EE331E03093EB032093EA0310925A
:101D8000D4041092D3048093D5049093D604A093E6
:101D9000D704B093D80486E691E09093D204809360
:101DA000D1041092E8041092E7041092EA04109211
:101DB000E9041092EC041092EB041092EE041092DD
:101DC000ED046091EF046E7F6D7F6093EF04669584
:101DD000617081E0682788E00E94EA0261E088E0A3
:101DE0000E941C03E7EBF0E0E491E093E104E3EAF6
:101DF000F0E0E491F0E0EE0FFF1FEF56FF4F85910A
:101E000094919093E3048093E20460E089E00E945F
:101E10001C038091EF0481FD04C061E089E00E9411
:101E2000EA0281ED94E029E02093DD04E8EBF0E0A4
:101E3000E491E093DE04E4EAF0E0E491F0E0EE0FF8
:101E4000FF1FE957FF4F259134913093E004209311
:101E5000DF041092A00410929F041092A20410922A
:101E6000A10420E430E03093A4042093A304109252
:101E7000A6041092A5044FEF5FEFBA014093A704A8
:101E80005093A8046093A9047093AA043093AC04FF
:101E90002093AB0420E031EE3093AE042093AD04E8
:101EA0001092AF041092B0041092B1041092B204D8
:101EB0004093B3045093B4046093B5047093B60494
:101EC0001092D0041092CF049093CE048093CD044E
:101ED0009093CC048093CB0410922C041092300485
:101EE00010922F04109231048CE591E090932B0412
:101EF00080932A04E6E4F4E082E894E010821482FD
:101F00001382158236968E179F07C1F788E091E0FD
:101F100090938D0480938C0485E091E090938F04DE
:101F200080938E0484E08093900493E090939104D6
:101F30002CE031E030938B0420938A042AE030E0D7
:101F4000309393042093920424EF31E0309395046E
:101F5000209394041092980410929704109286048F
:101F600010928704109288041092890410929604AB
:101F7000109221041092200420E531E030931F04D8
:101F800020931E0490E29093220494E190932704FE
:101F9000809328041092290480911A048C3098F4BC
:101FA00091E0980F90931A0480931B0490E0FC0139
:101FB000EE0FFF1FE80FF91FEA50FC4F88EB9BE084
:101FC0009283818308958FEF80931B040895789402
:101FD00084B5826084BD84B5816084BD85B582602E
:101FE00085BD85B5816085BD80916E0081608093DF
:101FF0006E00109281008091810082608093810048
:102000008091810081608093810080918000816057
:10201000809380008091B10084608093B1008091B2
:10202000B00081608093B00080917A0084608093DA
:102030007A0080917A00826080937A0080917A00A1
:10204000816080937A0080917A00806880937A0022
:102050001092C10068EE73E080E090E00E94730689
:10206000E091CF04F091D004309741F1A089B1897B
:1020700082E08C93A089B1891C92A485B5851C92BD
:10208000A685B78580E18C93108EA489B58986E0FA
:102090008C93A289B3898C9180618C93A289B38936
:1020A0008C9188608C93A289B3898C9180688C9381
:1020B0000288F389E02D80818F7D8083E091CD04BB
:1020C000F091CE04309709F473C0138E128E118EE6
:1020D000108E178A168A82E490E0958F848F84850B
:1020E000863108F03DC02FE030E0378B268B20E4AE
:1020F00030E0318F208F27E230E0338F228F9091B4
:102100006800883008F459C121E08E3008F420E0DE
:1021100081E001C0880F2A95EAF7892B8093680037
:1021200094852DE630E0983050F02BE630E09E307C
:1021300030F02CE630E0963110F030E020E0348BC7
:10214000238B292F30E0983008F039C181E001C09D
:10215000880F9A95EAF7858B848D958D0197F1F715
:10216000828D938D892B21F1A0911E03B0911F03C5
:10217000EA17FB07E9F0109751F05396CD91DC91E7
:102180005497988155968C91809589238883868D64
:102190008E7F868F10921D0310921C03F0931F03F5
:1021A000E0931E03A389B4898C919589892B8C9324
:1021B00060E08AE00E941C0361E086E00E941C034C
:1021C00080911B048C3008F051C061E085E00E94D2
:1021D0001C0380911B04282F30E0F901EE0FFF1F34
:1021E000E20FF31FEA50FC4F9081907C9560908342
:1021F00010921C0410921D042CE0622F0E943A13CE
:10220000829FB001112430E020E0AB01420F531F48
:10221000FA01EE0FFF1FE40FF51FEA50FC4F90810B
:1022200096FD16C02F5F3F4F2C30310571F781119D
:102230000FC01092800082E0809381001092850090
:1022400010928400B19A80916F00826080936F0039
:10225000E0911B048E2F90E0FC01EE0FFF1FE80FB2
:10226000F91FEA50FC4F80818064808390E080E019
:102270000E948E00109227031092260310922503CD
:10228000109224030E947A0786E891E0909323033A
:102290008093220387E891E09093210380932003A9
:1022A0001092230480912804823018F098E09093D3
:1022B00023048093260462E370E080E090E00E94B3
:1022C0007306609129048EE194E00E943E0868EE56
:1022D00073E080E090E00E94730660E38EE194E09A
:1022E0000E942909CBE4D6E4CE010197F1F760E31F
:1022F0008EE194E00E9429092197F1F760E38EE1D5
:1023000094E00E94290983E592E00197F1F760E2E9
:102310008EE194E00E94290960912304606240E00C
:102320008EE194E00E94420984E08093240440E01E
:102330006CE08EE194E00E9442090E94590982E01B
:102340008093250440E066E08EE194E00E9442091B
:1023500040E062E08EE194E00E9442098BE39FE15D
:102360000197F1F788E08093290460E08EE194E022
:102370000E943E0880E00E946409C3E0D0E000E0D3
:1023800010E08091360390913703039729F50E945E
:10239000590988ED91E00E94E9090E94410A809163
:1023A00034038111EECF0115110559F30E94F2019A
:1023B000882339F30E940000E4CF84E0AECE9E3043
:1023C00040F42850310981E001C0880F2A95EAF7CE
:1023D000C2CE2E503109F7CF0E94590989EE91E003
:1023E0000E94E90981E00E94640988EF91E00E945F
:1023F000E90980913603909137036E01C81AD90A12
:102400000D2C000CEE08FF084AE0C701B601F7FEEC
:102410000EC041E06DE28EE194E00E944209662721
:102420007727CB016C197D098E099F094AE00E942C
:102430009B098AEF91E00E94E9090E94EA04F82EC4
:10244000809335030E94590980E00E94640983E269
:10245000F8120EC00E94F609E0E2F1E0A8E2B3E053
:1024600091918D91981352C081E0E832F807C1F73D
:10247000809135038A3209F490CF0E94240AE0E06B
:10248000F1E0A0E3B3E091918D91981353C081E006
:10249000E430F807C1F70E94590980E00E946409FE
:1024A00087E092E00E94E90984EB90E00E948E00B0
:1024B0004EEE52E060E070E080E991E00E94580347
:1024C00068EB7BE080E090E00E9473060E9459096F
:1024D00080E00E9464098DE092E00E94E90990E0AA
:1024E00080E00E948E004CEB52E060E070E08CE2F5
:1024F00091E00E94580368EE73E080E090E00E9453
:102500007306109237031092360349CF0E9459097F
:102510008EEA91E00E94E90981E00E9464098AEB59
:1025200091E00E94E90968EB7BE080E090E00E9486
:1025300073069ECF80913603909137030196909356
:102540003703809336030E94590980E00E94640992
:1025500084E192E00E94E90948EE53E060E070E017
:1025600080ED97E00E94580368EE73E080E090E011
:102570000E94730614CF86E691E09093D204809374
:10258000D10480911E0390911F03815D944071F4EA
:10259000E091E404F091E50490818091E604809557
:1025A0008923808310921F0310921E030895052E25
:1025B00097FB1EF400940E94EE1257FD07D00E9474
:1025C000091307FC03D04EF40C94EE12509540957D
:1025D000309521953F4F4F4F5F4F089590958095CF
:1025E000709561957F4F8F4F9F4F08950E942B13D9
:1025F000A59F900DB49F900DA49F800D911D112457
:102600000895B7FF0C94F6120E94F612821B930BEA
:102610000895A1E21A2EAA1BBB1BFD010DC0AA1F23
:10262000BB1FEE1FFF1FA217B307E407F50720F03B
:10263000A21BB30BE40BF50B661F771F881F991FB6
:102640001A9469F760957095809590959B01AC01FF
:10265000BD01CF010895A29FB001B39FC001A39F08
:10266000700D811D1124911DB29F700D811D1124CB
:10267000911D0895991B79E004C0991F961708F0E1
:10268000961B881F7A95C9F78095089597FB072EAA
:1026900016F4009407D077FD09D00E945A1307FC66
:1026A00005D03EF4909581959F4F08957095619562
:1026B0007F4F0895AA1BBB1B51E107C0AA1FBB1F78
:1026C000A617B70710F0A61BB70B881F991F5A95BE
:1026D000A9F780959095BC01CD010895EE0FFF1FDD
:1026E0000590F491E02D099410E0C3E6D0E004C019
:1026F000FE010E946E132196C436D107C9F7F894E3
:02270000FFCF09
:1027020031313131FF0B0C0D030201003132333410
:1027120035363738392A302300004000140054007F
:102722003134363633323436000000002802880154
:10273200B5017502E601C401D801000000000F08CE
:10274200E2072609BD06DB07C807B907000000003B
:10275200950988012609250900000000E6041803EE
:10276200E70200000000BE0688012609BD061A071E
:102772003207A506456E7465722073757065722DF9
:10278200757365720070617373776F7264212121B2
:10279200002A0050617373776F7264206368616E00
:1027A20067656400456E746572206F6C64005772D1
:1027B2006F6E6720636F64652E00547279206167C3
:1027C20061696E212121004368616E676520706135
:1027D2007373776F72643A004368616E6765207045
:1027E200617373776F72642100456E746572207035
:1027F200617373776F726400280020747269657365
:10280200206C65667429004F70656E2E00436C6FF4
:1028120073652E0057726F6E672070617373776FE6
:0428220072640000DC
:00000001FF
